:1000000045C0000060C000005EC000005CC0000091
:100010005AC0000058C0000056C0000054C0000084
:1000200052C0000050C000004EC000004CC0000094
:100030004AC000008BC7000046C0000044C000005A
:1000400042C0000040C000003EC000003CC00000B4
:100050003AC0000038C0000036C0000034C00000C4
:1000600032C0000030C000002EC000002CC00000D4
:100070002AC0000028C0000026C0000024C00000E4
:1000800022C0000020C000001EC0000011241FBEBE
:10009000CFEFD0E4DEBFCDBF12E0A0E0B1E0E0E8FA
:1000A000FFE000E00BBF02C007900D92A431B10742
:1000B000D9F728E0A4E1B2E001C01D92AD34B20747
:1000C000E1F791D25BC79CCFCF93DF93EC01E2D3F2
:1000D0002091140230911502CE01820F931F8C3DA6
:1000E00045E0940758F42817390758F4E901CA5E27
:1000F000DD4F909315028093140205C0C0E0D0E05C
:1001000002C0C0E0D0E08DD4CE01DF91CF91089540
:100110000895FC010396928381832FEF3FEF348390
:100120002383968385839087878310820895FC01BB
:10013000118610860895CF93DF93FC01DB012181A6
:100140003281E9018A819B8113969C938E93129749
:100150008181928115969C938E9314978A819B81BD
:10016000EC017D836C83E9017B836A837283618305
:100170001996FC93EE93189780818F5F8083DF91AF
:10018000CF910895CF93DF93EB01488159814F3F81
:100190002FEF520731F4DC011796ED91FC9118977F
:1001A00017C0FC013396DC0115962D913C911697F2
:1001B000D9012D913C914217530750F00280F381F1
:1001C000E02DA281B3812D913C9142175307B0F7E6
:1001D000A281B381BB83AA831596DC93CE93149737
:1001E000FD83EC83D383C28399878887FC012081B8
:1001F0002F5F2083DF91CF910895FC01A281B3810D
:100200008481958115969C938E931497A481B581D2
:100210008281938113969C938E931297A085B185CA
:1002200011968D919C9112978E179F0731F48481BE
:10023000958112969C938E931197118610868C91BE
:1002400081508C930895181619065CF008950000EB
:1002500021503109E1F74F5F5F4F4817590729F4E3
:10026000089540E050E077E063E0272F362FEFCF8E
:100270008EEF85B900001C9B29C01D9B29C01E9BC9
:1002800029C01F9B29C08DEF85B900001C9B26C08B
:100290001D9B26C01E9B26C01F9B26C08BEF85B9C9
:1002A00000001C9B23C01D9B23C01E9B23C01F9BC3
:1002B00023C087EF85B900001C9B20C01D9B20C078
:1002C0001E9B20C01F9B20C080E0089581E30895FD
:1002D00084E3089587E308958AE2089582E3089508
:1002E00085E3089588E3089580E3089583E30895FE
:1002F00086E3089589E3089583E2089581E40895EB
:1003000082E4089583E4089584E40895CF93B0DFF0
:10031000C82F811103C01092F20707C08091F20725
:10032000811108C081E08093F20784E190E08BDFC7
:100330008C2F01C080E0CF910895CF92DF92EF9291
:10034000FF921F93CF93DF936C017B01672B79F0B2
:10035000C0E0D0E010E0DADF8823E9F3CC0DDD1D4A
:1003600088831F5FC12FD0E0CE15DF05A0F3F60113
:10037000EE0DFF1D1082DF91CF911F91FF90EF9046
:10038000DF90CF900895FC012081022E000C330BEA
:10039000307833232CF4215031093F6F2F5F3F4FCA
:1003A000D901A25FBE4F8C916230710578F0DF01F8
:1003B00011966E0F7F1FED910E2E000CFF0BE8279C
:1003C000E25FFE4F8081A617B707A9F70895813035
:1003D00089F0E1ECF0E0808188618083E2ECF0E07C
:1003E00080818660808381E88093C40086E080936A
:1003F000C5000895E9ECF0E0808188618083EAEC33
:10040000F0E080818660808381E88093CC0086E084
:100410008093CD000895813021F08091C0008072DA
:1004200008958091C80080720895813021F08091F4
:10043000C000807408958091C80080740895613070
:1004400041F0E0ECF0E0908195FFFDCF8093C60095
:100450000895E8ECF0E0908195FFFDCF8093CE0009
:100460000895DF92EF92FF920F931F93CF93DF9344
:100470008C01D62ED42FCD2F8D2FCDDF8823D9F30D
:100480006D2F8AEADCDF8C2FD0DF8823E1F38C2FFD
:10049000C2DF8823E1F36C2F8D2DD1DF8C2FC5DFD8
:1004A0008823E1F3ED2C0D2C000CFF081E141F0413
:1004B000ACF4D0E08C2FAFDF8823E1F36C2FF80190
:1004C000ED0FF11D8081BBDF8C2FAFDF8823E1F3BF
:1004D000DF5F2D2F30E02E153F0564F38C2F9BDF5F
:1004E0008823E1F36D2DDD0C770BC8014CDF6C2FF9
:1004F000A6DF8C2F9ADF8823E1F3DF91CF911F9144
:100500000F91FF90EF90DF90089580E060DF8FE023
:1005100084B980EF85B98FEF87B908951F93CF9382
:10052000DF93CDB7DEB765970FB6F894DEBF0FBE89
:10053000CDBF18B81D8AEADE8D8B8823E1F38A329D
:1005400021F0833269F416E001C016E040E061E07A
:10055000CE01459686DF1150C9F78FEF88B914C0D8
:10056000898363E070E0CE010296E7DE1D8216E02B
:1005700040E064E0CE01019674DF8AEF90E063DE34
:100580001150B1F78FEF88B965960FB6F894DEBFBA
:100590000FBECDBFDF91CF911F910895B6DFBEDFB3
:1005A0008AEF90E0BFD2FBCFAF92BF92CF92DF92A3
:1005B000EF92FF920F93A12CB12CC12CD12CE12CE6
:1005C000F12C082F20E030E045E550E062E071E0DA
:1005D0008EEC92E043D00F91FF90EF90DF90CF90A0
:1005E000BF90AF90089581E0DFDF2BD180E090E0F5
:1005F0000895CF93DF93EC01E0914B08F0914C0804
:10060000938382838091FB079091FC07C817D907D9
:1006100060F460914B0870914C08809111089091A2
:1006200012086E5F7F4FAEDD16C060914B0870916F
:100630004C0880911308909114086E5F7F4FA2DDE3
:100640008091000190910101C817D90720F4D0933F
:100650000101C0930001DF91CF9108954F925F9205
:100660006F927F928F929F92AF92BF92CF92DF92C2
:10067000EF92FF920F931F93CF93DF935C014B0197
:100680003A01290181E290E01FDDEC01892B09F498
:10069000C6C0C114D10409F0BEC0C30115DD988FD6
:1006A0008F8B009719F4CE0133DDB9C0A30165EA41
:1006B00070E04ED49301215031098F89988D3C010F
:1006C000620E731E48E050E0B401CE01499647D453
:1006D00018A2102F043008F013E01E8B6E0182E088
:1006E000C80ED11CC60123DDCE010C9620DDD987B2
:1006F000C88784E090E0811B91099D878C87DB8B04
:10070000CA8BA201B501C301CAD299838883E114BF
:10071000F10419F0F701D183C0830FB6F8940F925A
:100720008091FD078F5F8093FD0780914B0890912A
:100730004C08892B69F5D0934C08C0934B088091E5
:10074000FD078130A1F587E298E0E3DC80E398E0E3
:10075000E0DC89E398E0DDDC82E498E0DADC8EE13D
:1007600098E0D7DC85E198E0D4DC88E098E0D1DC43
:100770008FEF97E0CEDC8EE198E0909314088093A1
:10078000130885E198E090931208809311080FC038
:100790008091F80781110BC0E0914B08F0914C0853
:1007A0008689081720F0D0934C08C0934B088E8997
:1007B0009091FA07981710F48093FA079091F30735
:1007C0009F5F9093F3079091F907981710F4809327
:1007D000F90790E09C01220F331F220F331F220FD5
:1007E000331F820F931FB601895D974FA4DC0F90D2
:1007F0000FBE8091F807882351F0E0914B08F091EB
:100800004C088689801728F4F0D281E009C081E085
:1008100007C081E005C0D88ECF8AC60147CF8FEFD1
:10082000DF91CF911F910F91FF90EF90DF90CF90CC
:10083000BF90AF909F908F907F906F905F904F9000
:100840000895AF92BF92CF92DF92EF92FF920F93F3
:10085000A12CB12CC12CD12CE12CF12C00E020E0FA
:1008600030E045E550E06EE072E08DEA95E0F6DEBE
:10087000813041F4F8948093F8071092FC071092AD
:10088000FB0779D20F91FF90EF90DF90CF90BF9050
:10089000AF9008958091F7078F5F8093F7070895D1
:1008A0000F931F93CF93DF938091F7078111AFC010
:1008B0008091FB079091FC0701969093FC07809331
:1008C000FB078091FB079091FC07892B99F580919C
:1008D0001308909114082091110830911208309358
:1008E00014082093130890931208809311088091A4
:1008F000F4078F5F8093F407E0911308F0911408D8
:100900008081811107C08FEF9FEF90930101809349
:10091000000110C0E0911308F09114080580F681E1
:10092000E02D0680F781E02D828193819093010173
:10093000809300012091FB073091FC07809100011A
:10094000909101012817390708F466C0E091130857
:10095000F09114088081882399F0E0911308F091B8
:1009600014080580F681E02DC681D7818A819B819C
:100970002091FB073091FC0728173907F8F419C0BC
:100980008FEF9FEF909301018093000145C0E091AC
:100990001308F09114080580F681E02DC681D781F7
:1009A0008A819B812091FB073091FC07281739072A
:1009B00028F490930101809300012EC08E010E5FF8
:1009C0001F4FC8011ADC8C899D89892B19F0CE0133
:1009D0000C9613DC2E898091F907821710F420936E
:1009E000F90730E0C901880F991F880F991F880FF8
:1009F000991F820F931FB801895D974F9CDBE0918F
:100A00001308F091140880818111C1CFB9CF809172
:100A1000F6078F5F8093F607DF91CF911F910F91BB
:100A20000895CF92DF92EF92FF920F931F93CF938F
:100A3000DF930FB6F8940F928091F707815080935F
:100A4000F7078091F70781115FC08091FD07811141
:100A50002FC05DC0D7011596ED91FC911697C68108
:100A6000D781CE010C96C9DB8E010E5F1F4FC801E6
:100A7000C4DB2E898091F907821710F42093F907BF
:100A800030E0C901880F991F880F991F880F991F9F
:100A9000820F931FB801895D974F4DDBE0914B08A2
:100AA000F0914C089E898689981758F0DC2C09C073
:100AB000D12C0F2EF8E0EF2EF8E0FF2EF02DCC24F5
:100AC000C394F70180818111C5CF8091F6078823F7
:100AD00079F08091F607882391F0E2DE8091F607A5
:100AE00081508093F6078091F6078111F6CF07C0F9
:100AF000F1E0DF1621F08091F507813039F4109292
:100B0000F50773D181E003C080E001C080E00F9061
:100B10000FBEDF91CF911F910F91FF90EF90DF906B
:100B2000CF900895CF93DF93EC01892B91F0B2DE43
:100B30008091FB079091FC07C80FD91F80914B084B
:100B400090914C08029659DBCE0153DD6ADF81118A
:100B500001C04BD1DF91CF9108950F2EFFEFEF2E03
:100B6000F7E0FF2EF02DC7E2D8E08091FE07882342
:100B700029F190DED7011C9154DF1123F9F00FB653
:100B8000F8940F92D7011596ED91FC911697068176
:100B90001781C801029631DB8091FD078150809357
:100BA000FD078091FE0781508093FE070F900FBED6
:100BB000F8018789908DACDAC801AADA8881823081
:100BC000A0F213D1D2CF8091F707811113C0809189
:100BD000F90790E0FC01EE0FFF1FEE0FFF1FEE0F75
:100BE000FF1F8E0F9F1FFC01E95DF74F8081882357
:100BF00029F01BC081E08093F50708958091F907E3
:100C000081508093F9078091F90790E0FC01EE0F85
:100C1000FF1FEE0FFF1FEE0FFF1F8E0F9F1FFC0128
:100C2000E95DF74F8081882349F38091F90790E0CF
:100C30009C01220F331F220F331F220F331F280F57
:100C4000391FD901A95DB74F1196ED91FC9112970B
:100C50000280F381E02D1296FC93EE931197265DAE
:100C6000374FE217F30729F422813381FD013283E4
:100C70002183FC01EE0FFF1FEE0FFF1FEE0FFF1F82
:100C80008E0F9F1FFC01E95DF74F0180F281E02D7F
:100C90008681978190934C0880934B08089531E1A9
:100CA000FC013083319722E220833197A3E3A083B4
:100CB000319760833197708331971082319760E864
:100CC000608331971082319762E06083319763E0EF
:100CD0006083319764E06083319765E0608331978A
:100CE00066E06083319767E06083319768E06083F6
:100CF000319769E06083319760E160833197308399
:100D0000319732E13083319733E13083319734E1E9
:100D10003083319735E13083319736E13083319735
:100D200037E13083319738E13083319739E13083CF
:100D3000319730E23083319731E23083319720832D
:100D4000319723E220833197408331975083319745
:100D500026E22083319727E22083319728E22083FF
:100D6000319729E22083319720E32083319721E3D3
:100D7000208386970895109289008CE780938800DD
:100D80008BE080938100EFE6F0E0808182608083D9
:100D9000A0914B08B0914C08CD91CDBFDD91DEBF45
:100DA000FF91EF91DF91CF91BF91AF919F918F9183
:100DB0007F916F915F914F913F912F911F910F9173
:100DC000FF90EF90DF90CF90BF90AF909F908F906B
:100DD0007F906F905F904F903F902F901F900F905B
:100DE0000FBE0F90089581E008950F920FB6F8940A
:100DF0000F921F9211242F923F924F925F926F9207
:100E00007F928F929F92AF92BF92CF92DF92EF929A
:100E1000FF920F931F932F933F934F935F936F9383
:100E20007F938F939F93AF93BF93CF93DF93EF9372
:100E3000FF93A0914B08B0914C080DB60D920EB6E1
:100E40000D92C1DEA0914B08B0914C08CD91CDBF61
:100E5000DD91DEBFFF91EF91DF91CF91BF91AF9117
:100E60009F918F917F916F915F914F913F912F91C2
:100E70001F910F91FF90EF90DF90CF90BF90AF90B8
:100E80009F908F907F906F905F904F903F902F90AA
:100E90001F900F900FBE0F9008950F920FB6F89409
:100EA0000F921F9211242F923F924F925F926F9256
:100EB0007F928F929F92AF92BF92CF92DF92EF92EA
:100EC000FF920F931F932F933F934F935F936F93D3
:100ED0007F938F939F93AF93BF93CF93DF93EF93C2
:100EE000FF93A0914B08B0914C080DB60D920EB631
:100EF0000D92D6DC68DEA0914B08B0914C08CD91E4
:100F0000CDBFDD91DEBFFF91EF91DF91CF91BF911A
:100F1000AF919F918F917F916F915F914F913F9191
:100F20002F911F910F91FF90EF90DF90CF90BF9086
:100F3000AF909F908F907F906F905F904F903F9079
:100F40002F901F900F900FBE0F900895A6DF189559
:100F5000DC0101C06D9341505040E0F70895FB0162
:100F6000DC014150504048F001900D920020C9F73B
:100F700001C01D9241505040E0F70895F894FFCF12
:100F8000FFFF44656D6F5365635461736B006206C8
:100F90005596241770A487CFA9051A40A5DB3D14E8
:100FA0004459823F346618E584F550D8C3735AA873
:100FB0009CCBB17802BEBC0764B9AEF3A20AED12B5
:100FC000FDE108D0ACF4FF7E654F91EBE4797BFB4B
:100FD00043FAA1006B61F16FB552F92145373B9996
:100FE0001D09D5A7545D1E2E5E4B977249DEC56064
:100FF000D22D10E3F8CA3398FC7D51CED7BA279E84
:10100000B2BB8388013132118D5B2F813C639A23FF
:1010100056AB692226C8933A4D76ADF64CFE85E86C
:10102000C490C67C35046C4ADFEA86E69D8BBDCD54
:10103000C780B013D3EC7FC0E746E958922CB7C9FC
:1010400016530DD6746D9F205FE28CDC390CDD1FCA
:10105000D1B68F5C95B8943E7141251B6AA6030EEC
:10106000CC48152938421CC128D91936B375EE571A
:10107000F09BB4AAF2D4BFA34EDA89C2AF6E2B772D
:10108000E0477A8E2AA06830F7670F0B8AEF494451
:041090004C450000CB
:00000001FF
