S00C00004C6162312E73726563D8
S113000045C0000061C000005FC000005DC000008A
S11300105BC0000059C0000057C0000055C000007C
S113002053C0000051C000004FC000004DC000008C
S11300304BC000000C94FF0847C0000045C00000FE
S113004043C0000041C000003FC000003DC00000AC
S11300503BC0000039C0000037C0000035C00000BC
S113006033C0000031C000002FC000002DC00000CC
S11300702BC0000029C0000027C0000025C00000DC
S113008023C0000021C000001FC0000011241FBEB7
S1130090CFEFD0E4DEBFCDBF11E0A0E0B1E0EEE0F1
S11300A0F8E100E00BBF02C007900D92AA36B10739
S11300B0D9F727E0AAE6B1E001C01D92A93BB20737
S11300C0E1F7E3D30C94050C9BCFCF93DF93EC01C2
S11300D03AD520916A0130916B01CE01820F931FB2
S11300E08C3D45E0940758F42817390758F4E90182
S11300F0C459DE4F90936B0180936A0105C0C0E040
S1130100D0E002C0C0E0D0E0E5D5CE01DF91CF91D0
S113011008950895FC010396928381832FEF3FEFA6
S113012034832383968385839087878310820895FD
S1130130FC01118610860895CF93DF93FC01DB0147
S113014021813281E9018A819B8113969C938E934C
S113015012978181928115969C938E9314978A812C
S11301609B81EC017D836C83E9017B836A837283C9
S113017061831996FC93EE93189780818F5F808337
S1130180DF91CF910895CF93DF93EB01488159819B
S11301904F3F2FEF520731F4DC011796ED91FC919C
S11301A0189717C0FC013396DC0115962D913C91EC
S11301B01697D9012D913C914217530750F00280B4
S11301C0F381E02DA281B3812D913C914217530715
S11301D0B0F7A281B381BB83AA831596DC93CE9337
S11301E01497FD83EC83D383C28399878887FC01AA
S11301F020812F5F2083DF91CF910895FC01A2819C
S1130200B3818481958115969C938E931497A481D0
S1130210B5818281938113969C938E931297A085C6
S1130220B18511968D919C9112978E179F0731F489
S11302308481958112969C938E93119711861086D2
S11302408C9181508C930895181619065CF00895CA
S1130250000021503109E1F74F5F5F4F48175907FC
S113026029F4089540E050E077E063E0272F362F2B
S1130270EFCF299882B92A9A00002A9882E090E068
S1130280E3CF089581E0F5CF089584E690E0DCDFC4
S113029088E3EFDF86E0EDDF8FE0EBDF81E0E9DF8D
S11302A08AE090E0D1CF0895299A82B92A9A000071
S11302B02A9881E090E0C8CF0895813118F48158DC
S11302C0D8CF08958155D5CF08951F93CF93DF9349
S11302D0FB019081992351F0EB0111E0180FEDDF40
S11302E08991E2DF812F98819111F7CFDF91CF912E
S11302F01F9108951092AD0781E0809350070895EF
S11303001F93CF93DF93DC011092500790E061E0DC
S113031070E0C1E013E0D2E026B1822F80959B010A
S1130320092E02C0220F331F0A94E2F72823E92F73
S1130330092E000CFF0BE355F84F8081813031F416
S1130340FD01E90FF11D97FDFA95C08390915007C7
S1130350492F092E000C550BFA01E355F84F808103
S1130360813059F028F0823069F0833091F018C060
S1130370FA01E355F84FD08317C0FA01E355F84F5B
S1130380108312C0222381F0FA01E355F84FC08391
S11303900BC0211109C0FA01E355F84FD08304C002
S11303A0FA01E355F84F10829F5F90935007191696
S11303B00CF0B2CFDF91CF911F9108959BDF8CEAAF
S11303C097E09EDF84E690E006D5F9CF813089F08E
S11303D0E1ECF0E0808188618083E2ECF0E08081F0
S11303E08660808381E88093C40086E08093C500A2
S11303F00895E9ECF0E0808188618083EAECF0E024
S113040080818660808381E88093CC0086E080933D
S1130410CD000895813021F08091C0008078089546
S11304208091C80080780895813029F48091C800B3
S1130430882384F008958091C0008823ACF4A6EC4E
S1130440B0E0E0ECF0E08C91809348078081882351
S1130450D4F30895AEECB0E0E8ECF0E08C91809336
S1130460480780818823D4F30895613041F0E0EC9B
S1130470F0E0908195FFFDCF8093C6000895E8ECED
S1130480F0E0908195FFFDCF8093CE0008958130F8
S113049041F0E0ECF0E080818823ECF78091C60025
S11304A00895E8ECF0E080818823ECF78091CE0099
S11304B00895EF92FF920F931F93CF93DF938C01D4
S11304C0D62FCD2F8D2FA6DF8823D9F38C2FDFDFF6
S11304D08A3AE1F78C2F9EDF8823E1F38C2FD7DF54
S11304E08B3008F08AE0E82EF12C1E141F04ACF4C3
S11304F0D0E08C2F8FDF8823E1F38C2FC8DFF80145
S1130500ED0FF11DD7FDFA958083DF5F2D2F0D2EA2
S1130510000C330B2E153F0564F38C2F7BDF8823EF
S1130520E1F38C2FB4DFDF91CF911F910F91FF90F6
S1130530EF90089581E04ACF089581E06BDF88232E
S1130540E1F381E0A4DF8A3AE1F781E063DF882305
S1130550E1F381E09CDF80934D0781E05BDF88233A
S1130560E1F381E094DF80934E0781E053DF882339
S1130570E1F381E08CDF80934F070895DBDFDDDF5B
S11305808AEF90E028D4FBCF80914C07882319F19F
S113059080914F071F928F9380914E071F928F93E4
S11305A080914D071F928F9382E091E09F938F93E8
S11305B08EEA97E09F938F935FD66EEA77E081E0AF
S11305C084DE80E07ADE8DB79EB70A960FB6F89483
S11305D09EBF0FBE8DBF0895D7DF88EE93E0FBD397
S11305E0FBCF80E0F3DE51DE4DDE1092B8070895B4
S11305F00F931F93CF93DF93CDB7DEB76A970FB6F0
S1130600F894DEBF0FBECDBF8091B807813009F4E6
S113061048C038F0823009F4AAC0833009F4AAC073
S1130620ABC081E080934C0760E0CE01019641DFCE
S113063089818A3259F410924C0788EE93E004DEE3
S113064080E0F2DE81E08093B80796C0833259F4EB
S113065010924C0788EE93E0F7DD80E0E5DE83E05E
S11306608093B80789C01D82FE0131969E012B5FDD
S11306703F4F91E040E0819180538A3008F0942FFD
S1130680E217F307C1F7992309F479C0BE016F5F3C
S11306907F4F81E11ADE88EE93E0D6DD80E0C4DE90
S11306A06BC0F0DD61E171E081E00FDE60E0CE015E
S11306B00196FFDE89818A3239F410924C0782E078
S11306C08093B807DFDD58C0833231F410924C07B1
S11306D01092B807D7DD50C080E0A6DE89819A81E8
S11306E0998F888F8B819C819E8B8D8B1A8E1F8A0C
S11306F0CE01489686D58C0148970CF03DC0CE01BA
S113070045967FD5CC97C4F500934D07CE01459609
S113071078D580934E0710924F07E8ECF0E0908173
S113072095FFFDCF61E0802FA0DEE8ECF0E0808152
S113073086FFFDCFE8ECF0E0808185FFFDCF61E02E
S113074080914E0792DEE8ECF0E0808186FFFDCFD9
S1130750E8ECF0E0808185FFFDCF61E080914F07F8
S113076084DEE8ECF0E0808186FFFDCF05C01092C6
S1130770B80702C01092B80781E080934B076A96CD
S11307800FB6F894DEBF0FBECDBFDF91CF911F919E
S11307900F91089526DF2CDF84E690E01CD3FBCF75
S11307A08091AC07882349F081E090E090934A0758
S11307B0809349071092AC0712C080914907909129
S11307C04A07009721F420914B07222399F00196C0
S11307D090934A078093490710924B07479A809158
S11307E0490790914A07CC9728F0479810924A07F6
S11307F0109249070895D4DF84E690E0ECD2FBCF51
S1130800AF92BF92CF92DF92EF92FF920F93CF936A
S1130810A12CB12CC12CD12CE12CF12C082F20E0DF
S113082030E045E550E06AE171E08AEC93E06FD096
S113083020E030E045E550E066E271E08EEB92E0C6
S113084066D020E030E045E550E063E371E08CEEF3
S113085092E05DD020E030E045E550E065E471E0F1
S11308608EED91E054D020E030E045E550E063E5C2
S113087071E08BEF93E04BD0CF910F91FF90EF900D
S1130880DF90CF90BF90AF9008958FEF81B984B976
S113089080EF87B98FE088B981E0B2DF2BD180E0A7
S11308A090E00895CF93DF93EC01E091A907F091D4
S11308B0AA07938382838091590790915A07C81796
S11308C0D90760F46091A9077091AA0780916F0716
S11308D0909170076E5F7F4F56DC16C06091A90738
S11308E07091AA0780917107909172076E5F7F4F94
S11308F04ADC8091000190910101C817D90720F4C6
S1130900D0930101C0930001DF91CF9108954F92DC
S11309105F926F927F928F929F92AF92BF92CF928B
S1130920DF92EF92FF920F931F93CF93DF935C01BB
S11309304B013A01290181E290E0C7DBEC01892BEC
S113094009F4C6C0C114D10409F0BEC0C301BDDBA3
S1130950988F8F8B009719F4CE01DBDBB9C0A3010C
S113096065EA70E06BD49301215031098F89988D29
S11309703C01620E731E48E050E0B401CE0149967A
S113098064D418A2102F043008F013E01E8B6E01FB
S113099082E0C80ED11CC601CBDBCE010C96C8DBAD
S11309A0D987C88784E090E0811B91099D878C8753
S11309B0DB8BCA8BA201B501C301CAD29983888398
S11309C0E114F10419F0F701D183C0830FB6F89450
S11309D00F9280915B078F5F80935B078091A907DB
S11309E09091AA07892B69F5D093AA07C093A90708
S11309F080915B078130A1F585E897E08BDB8EE879
S1130A0097E088DB87E997E085DB80EA97E082DB83
S1130A108CE797E07FDB83E797E07CDB86E697E073
S1130A2079DB8DE597E076DB8CE797E090937207AE
S1130A308093710783E797E09093700780936F0723
S1130A400FC08091560781110BC0E091A907F09166
S1130A50AA078689081720F0D093AA07C093A9078C
S1130A608E8990915807981710F4809358079091A5
S1130A7051079F5F9093510790915707981710F46F
S1130A808093570790E09C01220F331F220F331FDE
S1130A90220F331F820F931FB6018B57984F4CDBE5
S1130AA00F900FBE80915607882351F0E091A9075B
S1130AB0F091AA078689801728F4F0D281E009C052
S1130AC081E007C081E005C0D88ECF8AC60147CF38
S1130AD08FEFDF91CF911F910F91FF90EF90DF90F7
S1130AE0CF90BF90AF909F908F907F906F905F90CA
S1130AF04F900895AF92BF92CF92DF92EF92FF9200
S1130B000F93A12CB12CC12CD12CE12CF12C00E0A1
S1130B1020E030E045E550E064E671E086E097E0EF
S1130B20F6DE813041F4F8948093560710925A0708
S1130B301092590779D20F91FF90EF90DF90CF90E8
S1130B40BF90AF900895809155078F5F80935507AC
S1130B5008950F931F93CF93DF93809155078111CD
S1130B60AFC08091590790915A07019690935A0704
S1130B70809359078091590790915A07892B99F5C9
S1130B80809171079091720720916F0730917007DF
S1130B9030937207209371079093700780936F07C7
S1130BA0809152078F5F80935207E0917107F09113
S1130BB072078081811107C08FEF9FEF909301012D
S1130BC08093000110C0E0917107F09172070580D5
S1130BD0F681E02D0680F781E02D82819381909348
S1130BE00101809300012091590730915A078091A7
S1130BF00001909101012817390708F466C0E091BB
S1130C007107F09172078081882399F0E091710750
S1130C10F09172070580F681E02DC681D7818A8123
S1130C209B812091590730915A0728173907F8F406
S1130C3019C08FEF9FEF909301018093000145C08D
S1130C40E0917107F09172070580F681E02DC6816D
S1130C50D7818A819B812091590730915A0728179F
S1130C60390728F490930101809300012EC08E016E
S1130C700E5F1F4FC801C2DA8C899D89892B19F038
S1130C80CE010C96BBDA2E8980915707821710F497
S1130C902093570730E0C901880F991F880F991FC7
S1130CA0880F991F820F931FB8018B57984F44DA0E
S1130CB0E0917107F091720780818111C1CFB9CFA2
S1130CC0809154078F5F80935407DF91CF911F91D8
S1130CD00F910895CF92DF92EF92FF920F931F939B
S1130CE0CF93DF930FB6F8940F92809155078150FC
S1130CF0809355078091550781115FC080915B07F0
S1130D0081112FC05DC0D7011596ED91FC91169706
S1130D10C681D781CE010C9671DA8E010E5F1F4F0A
S1130D20C8016CDA2E8980915707821710F420933A
S1130D30570730E0C901880F991F880F991F880F42
S1130D40991F820F931FB8018B57984FF5D9E091E3
S1130D50A907F091AA079E898689981758F0DC2C78
S1130D6009C0D12C0F2EF6E6EF2EF7E0FF2EF02D62
S1130D70CC24C394F70180818111C5CF809154079D
S1130D80882379F080915407882391F0E2DE8091E2
S1130D905407815080935407809154078111F6CFF2
S1130DA007C0F1E0DF1621F080915307813039F458
S1130DB01092530773D181E003C080E001C080E04A
S1130DC00F900FBEDF91CF911F910F91FF90EF9085
S1130DD0DF90CF900895CF93DF93EC01892B91F0AE
S1130DE0B2DE8091590790915A07C80FD91F80919C
S1130DF0A9079091AA07029601DACE0153DD6ADFB2
S1130E00811101C04BD1DF91CF9108950F2EFDE5E3
S1130E10EF2EF7E0FF2EF02DC5E8D7E080915C07B8
S1130E20882329F190DED7011C9154DF1123F9F0B6
S1130E300FB6F8940F92D7011596ED91FC91169781
S1130E4006811781C8010296D9D980915B07815028
S1130E5080935B0780915C07815080935C070F90BF
S1130E600FBEF8018789908D54D9C80152D9888161
S1130E708230A0F213D1D2CF80915507811113C0D3
S1130E808091570790E0FC01EE0FFF1FEE0FFF1F4C
S1130E90EE0FFF1F8E0F9F1FFC01EB57F84F808151
S1130EA0882329F01BC081E0809353070895809123
S1130EB057078150809357078091570790E0FC01B2
S1130EC0EE0FFF1FEE0FFF1FEE0FFF1F8E0F9F1F72
S1130ED0FC01EB57F84F8081882349F38091570731
S1130EE090E09C01220F331F220F331F220F331F68
S1130EF0280F391FD901AB57B84F1196ED91FC91CA
S1130F0012970280F381E02D1296FC93EE931197D1
S1130F102857384FE217F30729F422813381FD0162
S1130F2032832183FC01EE0FFF1FEE0FFF1FEE0F34
S1130F30FF1F8E0F9F1FFC01EB57F84F0180F281BA
S1130F40E02D868197819093AA078093A90708953D
S1130F5031E1FC013083319722E220833197A3E30E
S1130F60A0833197608331977083319710823197D2
S1130F7060E8608331971082319762E06083319733
S1130F8063E06083319764E06083319765E0608358
S1130F90319766E06083319767E06083319768E05A
S1130FA06083319769E06083319760E160833197B2
S1130FB03083319732E13083319733E13083319795
S1130FC034E13083319735E13083319736E1308332
S1130FD0319737E13083319738E13083319739E104
S1130FE03083319730E23083319731E23083319767
S1130FF02083319723E220833197408331975083B4
S1131000319726E22083319727E22083319728E223
S11310102083319729E22083319720E3208331977D
S113102021E3208386970895109289008CE78093AA
S113103088008BE080938100EFE6F0E0808182609D
S11310408083A091A907B091AA07CD91CDBFDD916E
S1131050DEBFFF91EF91DF91CF91BF91AF919F914F
S11310608F917F916F915F914F913F912F911F913C
S11310700F91FF90EF90DF90CF90BF90AF909F9033
S11310808F907F906F905F904F903F902F901F9024
S11310900F900FBE0F90089581E008950F920FB640
S11310A0F8940F921F9211242F923F924F925F92C5
S11310B06F927F928F929F92AF92BF92CF92DF9264
S11310C0EF92FF920F931F932F933F934F935F934E
S11310D06F937F938F939F93AF93BF93CF93DF933C
S11310E0EF93FF93A091A907B091AA070DB60D92B3
S11310F00EB60D92C1DEA091A907B091AA07CD91B9
S1131100CDBFDD91DEBFFF91EF91DF91CF91BF9114
S1131110AF919F918F917F916F915F914F913F918B
S11311202F911F910F91FF90EF90DF90CF90BF9080
S1131130AF909F908F907F906F905F904F903F9073
S11311402F901F900F900FBE0F9008950F920FB61F
S1131150F8940F921F9211242F923F924F925F9214
S11311606F927F928F929F92AF92BF92CF92DF92B3
S1131170EF92FF920F931F932F933F934F935F939D
S11311806F937F938F939F93AF93BF93CF93DF938B
S1131190EF93FF93A091A907B091AA070DB60D9202
S11311A00EB60D92D6DC68DEA091A907B091AA070D
S11311B0CD91CDBFDD91DEBFFF91EF91DF91CF9156
S11311C0BF91AF919F918F917F916F915F914F915B
S11311D03F912F911F910F91FF90EF90DF90CF904F
S11311E0BF90AF909F908F907F906F905F904F9043
S11311F03F902F901F900F900FBE0F900895A6DF81
S11312001895FC0188279927E89421912032E9F365
S1131210293010F02E30C8F32B3239F02D3231F44E
S1131220689403C021D0820F911D219120532A304C
S1131230C8F31EF4909581959F4F0895DC0101C079
S11312406D9341505040E0F70895FB01DC0141509B
S1131250504048F001900D920020C9F701C01D9242
S113126041505040E0F708957AE0979F902D879F72
S1131270802D910D112408950F931F93CF93DF9325
S1131280CDB7DEB72E970FB6F894DEBF0FBECDBF35
S11312900D891E8986E08C831A8309838FEF9FE76B
S11312A09E838D83AE01475E5F4F6F89788DCE013B
S11312B0019611D02F813885F801E20FF31F1082B7
S11312C02E960FB6F894DEBF0FBECDBFDF91CF913F
S11312D01F910F9108952F923F924F925F926F92B8
S11312E07F928F929F92AF92BF92CF92DF92EF92B2
S11312F0FF920F931F93CF93DF93CDB7DEB72C9755
S11313000FB6F894DEBF0FBECDBF7C016B018A011E
S1131310FC0117821682838181FFB0C1CE01019640
S11313204C01F7019381F60193FD859193FF81911F
S11313306F01882309F49EC1853239F493FD8591A8
S113134093FF81916F01853221F4B70190E0C7D1F9
S1131350E8CF512C312C20E02032A0F48B3269F0FC
S113136030F4803259F0833269F420612CC08D321C
S113137039F0803339F4216026C02260246023C010
S1131380286021C027FD27C030ED380F3A3078F4AB
S113139026FF06C0FAE05F9E300D1124532E13C0C1
S11313A08AE0389E300D1124332E20620CC08E3218
S11313B021F426FD5FC1206406C08C3611F4206838
S11313C002C0883641F4F60193FD859193FF819123
S11313D06F018111C1CF982F9F7D9554933028F4CC
S11313E00C5F1F4FFFE3F9830DC0833631F0833761
S11313F071F0833509F057C021C0F80180818983D9
S11314000E5F1F4F44244394512C540114C03801DF
S1131410F2E06F0E711CF801A080B18026FF03C0BA
S1131420652D70E002C06FEF7FEFC5012C874CD1B2
S11314302C0183012C852F77222E16C03801F2E06F
S11314406F0E711CF801A080B18026FF03C0652DCA
S113145070E002C06FEF7FEFC5012C872AD12C0109
S11314602C852068222E830123FC19C0832D90E053
S113147048165906A0F4B70180E290E030D13A94BE
S1131480F5CFF50127FC859127FE81915F01B70116
S113149090E025D131103A94F1E04F1A51084114EB
S11314A0510479F7DEC0843611F0893631F5F8013C
S11314B027FF07C060817181828193810C5F1F4F78
S11314C008C060817181072E000C880B990B0E5F98
S11314D01F4F2F76722E97FF09C0909580957095B7
S11314E061957F4F8F4F9F4F2068722E2AE030E026
S11314F0A4012DD1A82EA81843C0853729F42F7E26
S1131500B22E2AE030E025C0F22FF97FBF2E8F36AD
S1131510C1F018F4883579F0ADC0803719F08837F8
S113152021F0A8C02F2F2061B22EB4FE0DC08B2D48
S11315308460B82E09C024FF0AC09F2F9660B92E7C
S113154006C028E030E005C020E130E002C020E120
S113155032E0F801B7FE07C0608171818281938116
S11315600C5F1F4F06C06081718180E090E00E5FC8
S11315701F4FA401ECD0A82EA818FB2DFF777F2EB7
S113158076FE0BC0372D3E7FA51450F474FE0AC0BE
S113159072FC08C0372D3E7E05C0BA2C372D03C01F
S11315A0BA2C01C0B52C34FF0DC0FE01EA0DF11DAB
S11315B08081803311F4397E09C032FF06C0B394B0
S11315C0B39404C0832F867809F0B39433FD12C01A
S11315D030FF06C05A2CB31418F4530C5B18B32C08
S11315E0B31460F4B70180E290E03C8778D0B39400
S11315F03C85F6CFB31410F43B1801C0312C34FFF2
S113160011C0B70180E390E03C8769D03C8532FF8C
S113161016C031FD03C088E790E002C088E590E081
S1131620B7010CC0832F867851F031FF02C08BE2E2
S113163001C080E237FD8DE2B70190E050D0A514DF
S113164030F4B70180E390E04AD05A94F8CFAA94DA
S1131650F401EA0DF11D8081B70190E040D0A110A2
S1131660F6CF332009F45DCEB70180E290E037D0A5
S11316703A94F7CFF7018681978102C08FEF9FEFED
S11316802C960FB6F894DEBF0FBECDBFDF91CF917D
S11316901F910F91FF90EF90DF90CF90BF90AF908C
S11316A09F908F907F906F905F904F903F902F907E
S11316B00895FC010590615070400110D8F78095A1
S11316C090958E0F9F1F0895FC016150704001900A
S11316D00110D8F7809590958E0F9F1F08950F9352
S11316E01F93CF93DF93FB01238121FD03C08FEF71
S11316F09FEF28C022FF16C046815781248135817F
S11317004217530744F4A081B1819D012F5F3F4FDD
S1131710318320838C93268137812F5F3F4F37831A
S1131720268310C0EB01092F182F0084F185E02DCA
S11317300995892BE1F68E819F8101969F838E8383
S1131740812F902FDF91CF911F910F910895FA016E
S1131750AA27283051F1203181F1E8946F936E7FEC
S11317606E5F7F4F8F4F9F4FAF4FB1E03ED0B4E0DD
S11317703CD0670F781F891F9A1FA11D680F791F1E
S11317808A1F911DA11D6A0F711D811D911DA11D2F
S113179020D009F468943F912AE0269F112430193F
S11317A0305D3193DEF6CF010895462F4770405DDA
S11317B04193B3E00FD0C9F7F6CF462F4F70405D89
S11317C04A3318F0495D31FD4052419302D0A9F7E4
S11317D0EACFB4E0A6959795879577956795BA95DE
S11317E0C9F700976105710508959B01AC010A2EA4
S11317F006945795479537952795BA95C9F7620F7B
S1111800731F841F951FA01D0895F894FFCF39
S113180EFFFF253032643A253032643A2530326493
S113181E005345542054494D450044656D6F53653E
S113182E635461736B00436C6F636B5365635461F4
S113183E736B00436C6F636B5072696E74536563A4
S113184E5461736B00427574746F6E5365635461A7
S113185E736B004261636B6C6967687453656354A0
S10D186E61736B0049444C4500000F
S9030000FC
