:1000000045C0000061C000005FC000005DC000008E
:100010005BC0000059C0000057C0000055C0000080
:1000200053C0000051C000004FC000004DC0000090
:100030004BC000000C94690A47C0000045C0000096
:1000400043C0000041C000003FC000003DC00000B0
:100050003BC0000039C0000037C0000035C00000C0
:1000600033C0000031C000002FC000002DC00000D0
:100070002BC0000029C0000027C0000025C00000E0
:1000800023C0000021C000001FC0000011241FBEBB
:10009000CFEFD0E4DEBFCDBF12E0A0E0B1E0E2EEF2
:1000A000FAE100E00BBF02C007900D92A438B1073F
:1000B000D9F728E0A4E8B2E001C01D92A63DB2073E
:1000C000E1F74BD50C946F0D9BCFCF93DF93EC01F1
:1000D000A2D62091840230918502CE01820F931F17
:1000E0008C3D45E0940758F42817390758F4E90186
:1000F000CA57DD4F909385028093840205C0C0E00B
:10010000D0E002C0C0E0D0E04DD7CE01DF91CF916A
:1001100008950895FC010396928381832FEF3FEFAA
:100120003483238396838583908787831082089501
:10013000FC01118610860895CF93DF93FC01DB014B
:1001400021813281E9018A819B8113969C938E9350
:1001500012978181928115969C938E9314978A8130
:100160009B81EC017D836C83E9017B836A837283CD
:1001700061831996FC93EE93189780818F5F80833B
:10018000DF91CF910895CF93DF93EB01488159819F
:100190004F3F2FEF520731F4DC011796ED91FC91A0
:1001A000189717C0FC013396DC0115962D913C91F0
:1001B0001697D9012D913C914217530750F00280B8
:1001C000F381E02DA281B3812D913C914217530719
:1001D000B0F7A281B381BB83AA831596DC93CE933B
:1001E0001497FD83EC83D383C28399878887FC01AE
:1001F00020812F5F2083DF91CF910895FC01A281A0
:10020000B3818481958115969C938E931497A481D4
:10021000B5818281938113969C938E931297A085CA
:10022000B18511968D919C9112978E179F0731F48D
:100230008481958112969C938E93119711861086D6
:100240008C9181508C930895181619065CF00895CE
:10025000000021503109E1F74F5F5F4F4817590700
:1002600029F4089540E050E077E063E0272F362F2F
:10027000EFCF299882B92A9A00002A9882E090E06C
:10028000E3CF089581E0F5CF089584E690E0DCDFC8
:1002900088E3EFDF86E0EDDF8FE0EBDF81E0E9DF91
:1002A0008AE090E0D1CF0895299A82B92A9A000075
:1002B0002A9881E090E0C8CF0895813118F48158E0
:1002C000D8CF08958155D5CF08951F93CF93DF934D
:1002D000FB019081992351F0EB0111E0180FEDDF44
:1002E0008991E2DF812F98819111F7CFDF91CF9132
:1002F0001F9108951092CA0881E080936D080895B7
:100300001F93CF93DF93DC0110926D0890E061E0C2
:1003100070E0C1E013E0D2E026B1822F80959B010E
:10032000092E02C0220F331F0A94E2F72823E92F77
:10033000092E000CFF0BE653F74F8081813031F41A
:10034000FD01E90FF11D97FDFA95C08390916D08AD
:10035000492F092E000C550BFA01E653F74F808107
:10036000813059F028F0823069F0833091F018C064
:10037000FA01E653F74FD08317C0FA01E653F74F5F
:10038000108312C0222381F0FA01E653F74FC08395
:100390000BC0211109C0FA01E653F74FD08304C006
:1003A000FA01E653F74F10829F5F90936D0819167C
:1003B0000CF0B2CFDF91CF911F9108959BDF89ECB4
:1003C00098E09EDF84E690E06ED6F9CFFC012081B4
:1003D000022E000C330B307833232CF421503109DA
:1003E0003F6F2F5F3F4FD901A258BE4F8C916230B3
:1003F000710578F0DF0111966E0F7F1FED910E2EC3
:10040000000CFF0BE827E258FE4F8081A617B707C4
:10041000A9F70895813089F0E1ECF0E080818861EE
:100420008083E2ECF0E080818660808381E88093C5
:10043000C40086E08093C5000895E9ECF0E0808177
:1004400088618083EAECF0E080818660808381E8C7
:100450008093CC0086E08093CD000895813021F018
:100460008091C000807808958091C80080780895B8
:10047000813029F48091C800882384F00895809108
:10048000C0008823ACF4A6ECB0E0E0ECF0E08C9186
:100490008093620880818823D4F30895AEECB0E0A5
:1004A000E8ECF0E08C918093620880818823D4F39B
:1004B0000895613041F0E0ECF0E0908195FFFDCFD0
:1004C0008093C6000895E8ECF0E0908195FFFDCFA1
:1004D0008093CE000895813041F0E0ECF0E080811F
:1004E0008823ECF78091C6000895E8ECF0E0808165
:1004F0008823ECF78091CE000895DF92EF92FF926F
:100500000F931F93CF93DF938C01D62FCD2F8D2F79
:10051000A5DF8823D9F38C2FDEDF8A3AE1F78C2F11
:100520009DDF8823E1F38C2FD6DFD82E8AE08D154E
:1005300020F40F2EFAE0DF2EF02DED2CF12C1E14FE
:100540001F04ACF4D0E08C2F89DF8823E1F38C2FDB
:10055000C2DFF801ED0FF11DD7FDFA958083DF5F53
:100560002D2F0D2E000C330B2E153F0564F38C2F11
:1005700075DF8823E1F38C2FAEDFC82F6D2D70E07F
:10058000C80124DF8C1307C08CED95E05DDE80E0B0
:100590006FDF81E001C080E0DF91CF911F910F916B
:1005A000FF90EF90DF900895982F9D7F913081F01C
:1005B000853081F099EF980F923070F08A3071F0A9
:1005C0008C3071F0823071F4637071F48DE10895B4
:1005D0008FE108958FE108958FE108958FE10895E7
:1005E0008FE108958EE108958CE108950F931F9394
:1005F000CF93DF93CDB7DEB729970FB6F894DEBF60
:100600000FBECDBF21E08230920709F46CC08C018F
:1006100081E02EDFF8018081918198878F8382812C
:1006200093819D838C83848195819A8389831986A4
:100630001E821B82CE0107964ED78C0149970CF083
:100640004CC0CE01049647D7CC970CF048C0CE01E1
:10065000019641D7CC970CF044C000936A08CE01B4
:10066000049639D780936B08CE01019634D78093D6
:100670006C08E8ECF0E0808185FFFDCF61E08AEA5C
:1006800018DFE8ECF0E0808185FFFDCF61E080912C
:100690006A080FDFE8ECF0E0808186FFFDCFE8EC30
:1006A000F0E0808185FFFDCF61E080916B0801DF84
:1006B000E8ECF0E0808186FFFDCFE8ECF0E080819F
:1006C00085FFFDCF61E080916C08F3DEE8ECF0E09F
:1006D000808186FFFDCF81E007C080E005C080E01B
:1006E00003C080E001C080E029960FB6F894DEBF19
:1006F0000FBECDBFDF91CF911F910F9108950F9342
:100700001F93CF93DF93CDB7DEB729970FB6F89439
:10071000DEBF0FBECDBF21E08230920709F47FC05B
:100720008C0181E0A5DEF801808191819D838C831D
:10073000828193819A8389838481958198878F832D
:100740001E821B821986CE010196C5D6182FCE01B6
:100750000496C1D6082FCE010796BDD6112309F401
:1007600056C0002309F455C0882309F454C08436C8
:1007700074F00D3064F0682F802F16DF90E0212F89
:10078000012E000C330B821793070CF446C0109314
:100790006908CE0104969FD680936808CE0107961B
:1007A0009AD680936708E8ECF0E0808185FFFDCF62
:1007B00061E08FEF7EDEE8ECF0E0808185FFFDCF29
:1007C00061E08091670875DEE8ECF0E0808186FFEB
:1007D000FDCFE8ECF0E0808185FFFDCF61E0809106
:1007E000680867DEE8ECF0E0808186FFFDCFE8EC8A
:1007F000F0E0808185FFFDCF61E08091690859DEDE
:10080000E8ECF0E0808186FFFDCF81E009C080E068
:1008100007C080E005C080E003C080E001C080E048
:1008200029960FB6F894DEBF0FBECDBFDF91CF91F2
:100830001F910F91089581E0EDCD089581E00EDEC6
:100840008823E1F381E047DE8A3AE1F781E006DEC2
:100850008823E1F381E03FDE80936A0881E0FEDDDA
:100860008823E1F381E037DE80936B0881E0F6DDD9
:100870008823E1F381E02FDE80936C0881E0EEDDD8
:100880008823E1F381E027DE8093670881E0E6DDDD
:100890008823E1F381E01FDE8093680881E0DEDDDC
:1008A0008823E1F381E017DE809369080895C3DFB0
:1008B000C5DF8AEF90E0F7D3FBCFCF93DF93809132
:1008C00066088823C1F180916C081F928F938091F4
:1008D0006B081F928F9380916A081F928F9384E018
:1008E00091E09F938F93CBECD8E0DF93CF932ED6FC
:1008F000BE0181E0EADC809167081F928F938091AE
:1009000069081F928F93809168081F928F9383E1EB
:1009100091E09F938F93DF93CF9318D6BE0181E12F
:10092000D4DC80E0CADC8DB79EB744960FB6F8944D
:100930009EBF0FBE8DBFDF91CF910895BEDF88EEC1
:1009400093E0B1D3FBCF80E065DD9FDC9BDC1092B0
:10095000D5080895CF93DF93CDB7DEB764970FB670
:10096000F894DEBF0FBECDBF8091D508813039F13C
:1009700020F0823009F448C069C081E080936608A5
:1009800060E0CE010196B9DD882309F462C0898157
:100990008A3231F41092660881E08093D50856C0FF
:1009A000833231F41092660882E08093D5084EC0FD
:1009B0001F82BE016F5F7F4F8AE087DC47C062DC29
:1009C00062E271E081E081DC60E0CE01019695DDBC
:1009D000882309F43EC089818A3231F41092660876
:1009E00082E08093D50832C0833229F410926608E1
:1009F0001092D5082BC01F82CE010196F7DD882307
:100A000029F11092D50822C03DDC6BE271E081E053
:100A10005CDC60E0CE01019670DD8823D1F0898135
:100A20008A3229F4109266081092D5080FC08332DA
:100A300031F41092660881E08093D50807C01F82C8
:100A4000CE0101965CDE81111092D50881E0809381
:100A5000650864960FB6F894DEBF0FBECDBFDF9178
:100A6000CF91089570DF76DF84E690E01CD3FBCF52
:100A70008091C908882349F081E090E09093640850
:100A8000809363081092C90812C080916308909106
:100A90006408009721F420916508222399F00196BB
:100AA000909364088093630810926508479A809138
:100AB000630890916408CC9728F0479810926408D6
:100AC000109263080895D4DF84E690E0ECD2FBCF67
:100AD000AF92BF92CF92DF92EF92FF920F93CF939C
:100AE000A12CB12CC12CD12CE12CF12C082F20E011
:100AF00030E045E550E064E371E082E395E06FD0DB
:100B000020E030E045E550E060E471E087E594E006
:100B100066D020E030E045E550E06DE471E08EE91C
:100B200094E05DD020E030E045E550E06FE571E015
:100B30008EED91E054D020E030E045E550E06DE6E8
:100B400071E083E695E04BD0CF910F91FF90EF904D
:100B5000DF90CF90BF90AF9008958FEF81B984B9A7
:100B600080EF87B98FE088B981E0B2DF2BD180E0D8
:100B700090E00895CF93DF93EC01E091C608F091E7
:100B8000C708938382838091760890917708C8176D
:100B9000D90760F46091C6087091C70880918C08ED
:100BA00090918D086E5F7F4FEEDA16C06091C60897
:100BB0007091C70880918E0890918F086E5F7F4F6B
:100BC000E2DA8091000190910101C817D90720F461
:100BD000D0930101C0930001DF91CF9108954F920E
:100BE0005F926F927F928F929F92AF92BF92CF92BD
:100BF000DF92EF92FF920F931F93CF93DF935C01ED
:100C00004B013A01290181E290E05FDAEC01892B86
:100C100009F4C6C0C114D10409F0BEC0C30155DA3D
:100C2000988F8F8B009719F4CE0173DAB9C0A301A6
:100C300065EA70E06DD49301215031098F89988D58
:100C40003C01620E731E48E050E0B401CE014996AB
:100C500066D418A2102F043008F013E01E8B6E012A
:100C600082E0C80ED11CC60163DACE010C9660DAB0
:100C7000D987C88784E090E0811B91099D878C8784
:100C8000DB8BCA8BA201B501C301CCD299838883C7
:100C9000E114F10419F0F701D183C0830FB6F89481
:100CA0000F92809178088F5F809378088091C608B2
:100CB0009091C708892B69F5D093C708C093C608DF
:100CC000809178088130A1F582EA98E023DA8BEAF6
:100CD00098E020DA84EB98E01DDA8DEB98E01ADAE0
:100CE00089E998E017DA80E998E014DA83E898E077
:100CF00011DA8AE798E00EDA89E998E090938F0894
:100D000080938E0880E998E090938D0880938C08FA
:100D10000FC08091730881110BC0E091C608F0915B
:100D2000C7088689081720F0D093C708C093C60863
:100D30008E8990917508981710F48093750890919A
:100D40006E089F5F90936E0890917408981710F446
:100D50008093740890E09C01220F331F220F331FF1
:100D6000220F331F820F931FB6018E55974FE4D980
:100D70000F900FBE80917308882351F0E091C60850
:100D8000F091C7088689801728F4F2D281E009C063
:100D900081E007C081E005C0D88ECF8AC60147CF69
:100DA0008FEFDF91CF911F910F91FF90EF90DF9028
:100DB000CF90BF90AF909F908F907F906F905F90FB
:100DC0004F900895AF92BF92CF92DF92EF92FF9231
:100DD0000F93A12CB12CC12CD12CE12CF12C00E0D3
:100DE00020E030E045E550E06EE772E08EE698E006
:100DF000F6DE813041F4F8948093730810927708FE
:100E0000109276087BD20F91FF90EF90DF90CF90F9
:100E1000BF90AF900895809172088F5F80937208A1
:100E200008950F931F93CF93DF93809172088111E0
:100E3000AFC08091760890917708019690937708DB
:100E4000809376088091760890917708892B99F5A0
:100E500080918E0890918F0820918C0830918D0898
:100E600030938F0820938E0890938D0880938C0880
:100E700080916F088F5F80936F08E0918E08F091EA
:100E80008F088081811107C08FEF9FEF9093010140
:100E90008093000110C0E0918E08F0918F080580CA
:100EA000F681E02D0680F781E02D82819381909379
:100EB000010180930001209176083091770880919C
:100EC0000001909101012817390708F466C0E091EC
:100ED0008E08F0918F088081882399F0E0918E0828
:100EE000F0918F080580F681E02DC681D7818A8137
:100EF0009B81209176083091770828173907F8F4FC
:100F000019C08FEF9FEF909301018093000145C0BE
:100F1000E0918E08F0918F080580F681E02DC68162
:100F2000D7818A819B812091760830917708281794
:100F3000390728F490930101809300012EC08E019F
:100F40000E5F1F4FC8015AD98C899D89892B19F0D2
:100F5000CE010C9653D92E8980917408821710F413
:100F60002093740830E0C901880F991F880F991FDA
:100F7000880F991F820F931FB8018E55974FDCD8A9
:100F8000E0918E08F0918F0880818111C1CFB9CF97
:100F9000809171088F5F80937108DF91CF911F91CD
:100FA0000F910895CF92DF92EF92FF920F931F93CC
:100FB000CF93DF930FB6F8940F928091720881500F
:100FC000809372088091720881115FC080917808C7
:100FD00081112FC05DC0D7011596ED91FC91169738
:100FE000C681D781CE010C9609D98E010E5F1F4FA5
:100FF000C80104D92E8980917408821710F42093B7
:10100000740830E0C901880F991F880F991F880F55
:10101000991F820F931FB8018E55974F8DD8E0917D
:10102000C608F091C7089E898689981758F0DC2C6D
:1010300009C0D12C0F2EF3E8EF2EF8E0FF2EF02D93
:10104000CC24C394F70180818111C5CF80917108B0
:10105000882379F080917108882391F0E2DE8091F5
:101060007108815080937108809171088111F6CFC9
:1010700007C0F1E0DF1621F080917008813039F46B
:101080001092700875D181E003C080E001C080E05B
:101090000F900FBEDF91CF911F910F91FF90EF90B6
:1010A000DF90CF900895CF93DF93EC01892B91F0DF
:1010B000B2DE8091760890917708C80FD91F809191
:1010C000C6089091C708029699D8CE0153DD6ADF11
:1010D000811101C04DD1DF91CF9108950F2EFAE714
:1010E000EF2EF8E0FF2EF02DC2EAD8E080917908CB
:1010F000882339F190DED7011C9154DF112309F1C7
:101100000FB6F8940F92D7011596ED91FC911697B2
:1011100006811781C801029671D8809178088150A4
:1011200080937808809179088150809379080F9096
:101130000FBEF8018789908D0E948900C8010E9426
:1011400089008881823090F213D1D0CF80917208CB
:10115000811113C08091740890E0FC01EE0FFF1F15
:10116000EE0FFF1FEE0FFF1F8E0F9F1FFC01EE55AE
:10117000F74F8081882329F01BC081E0809370089D
:101180000895809174088150809374088091740848
:1011900090E0FC01EE0FFF1FEE0FFF1FEE0FFF1F91
:1011A0008E0F9F1FFC01EE55F74F8081882349F376
:1011B0008091740890E09C01220F331F220F331F8F
:1011C000220F331F280F391FD901AE55B74F119683
:1011D000ED91FC9112970280F381E02D1296FC9321
:1011E000EE9311972B55374FE217F30729F422811D
:1011F0003381FD0132832183FC01EE0FFF1FEE0FCF
:10120000FF1FEE0FFF1F8E0F9F1FFC01EE55F74FC4
:101210000180F281E02D868197819093C7088093A9
:10122000C608089531E1FC013083319722E2208322
:101230003197A3E3A083319760833197708331970F
:101240001082319760E8608331971082319762E0B5
:101250006083319763E06083319764E06083319706
:1012600065E06083319766E06083319767E0608373
:10127000319768E06083319769E06083319760E17E
:10128000608331973083319732E13083319733E196
:101290003083319734E13083319735E130833197B2
:1012A00036E13083319737E13083319738E130834D
:1012B000319739E13083319730E23083319731E231
:1012C000308331972083319723E220833197408305
:1012D00031975083319726E22083319727E220838C
:1012E000319728E22083319729E22083319720E348
:1012F0002083319721E320838697089510928900F7
:101300008CE7809388008BE080938100EFE6F0E02B
:10131000808182608083A091C608B091C708CD917A
:10132000CDBFDD91DEBFFF91EF91DF91CF91BF91F6
:10133000AF919F918F917F916F915F914F913F916D
:101340002F911F910F91FF90EF90DF90CF90BF9062
:10135000AF909F908F907F906F905F904F903F9055
:101360002F901F900F900FBE0F90089581E0089569
:101370000F920FB6F8940F921F9211242F923F9262
:101380004F925F926F927F928F929F92AF92BF9295
:10139000CF92DF92EF92FF920F931F932F933F9381
:1013A0004F935F936F937F938F939F93AF93BF936D
:1013B000CF93DF93EF93FF93A091C608B091C70836
:1013C0000DB60D920EB60D92C1DEA091C608B09179
:1013D000C708CD91CDBFDD91DEBFFF91EF91DF91C9
:1013E000CF91BF91AF919F918F917F916F915F91BD
:1013F0004F913F912F911F910F91FF90EF90DF90B0
:10140000CF90BF90AF909F908F907F906F905F90A4
:101410004F903F902F901F900F900FBE0F90089508
:101420000F920FB6F8940F921F9211242F923F92B1
:101430004F925F926F927F928F929F92AF92BF92E4
:10144000CF92DF92EF92FF920F931F932F933F93D0
:101450004F935F936F937F938F939F93AF93BF93BC
:10146000CF93DF93EF93FF93A091C608B091C70885
:101470000DB60D920EB60D92D4DC68DEA091C608B2
:10148000B091C708CD91CDBFDD91DEBFFF91EF9147
:10149000DF91CF91BF91AF919F918F917F916F918C
:1014A0005F914F913F912F911F910F91FF90EF907E
:1014B000DF90CF90BF90AF909F908F907F906F9074
:1014C0005F904F903F902F901F900F900FBE0F9006
:1014D0000895A6DF1895FC0188279927E8942191A3
:1014E0002032E9F3293010F02E30C8F32B3239F0D6
:1014F0002D3231F4689403C021D0820F911D2191C7
:1015000020532A30C8F31EF4909581959F4F08957B
:10151000DC0101C06D9341505040E0F70895FB019C
:10152000DC014150504048F001900D920020C9F775
:1015300001C01D9241505040E0F708957AE0979F16
:10154000902D879F802D910D112408950F931F9347
:10155000CF93DF93CDB7DEB72E970FB6F894DEBFEB
:101560000FBECDBF0D891E8986E08C831A83098347
:101570008FEF9FE79E838D83AE01475E5F4F6F893C
:10158000788DCE01019611D02F813885F801E20FB8
:10159000F31F10822E960FB6F894DEBF0FBECDBF9C
:1015A000DF91CF911F910F9108952F923F924F920B
:1015B0005F926F927F928F929F92AF92BF92CF92E3
:1015C000DF92EF92FF920F931F93CF93DF93CDB7EC
:1015D000DEB72C970FB6F894DEBF0FBECDBF7C01EF
:1015E0006B018A01FC0117821682838181FFB0C1E1
:1015F000CE0101964C01F7019381F60193FD85918F
:1016000093FF81916F01882309F49EC1853239F4DB
:1016100093FD859193FF81916F01853221F4B7018C
:1016200090E0C7D1E8CF512C312C20E02032A0F43B
:101630008B3269F030F4803259F0833269F42061E2
:101640002CC08D3239F0803339F4216026C02260FD
:10165000246023C0286021C027FD27C030ED380F4B
:101660003A3078F426FF06C0FAE05F9E300D112470
:10167000532E13C08AE0389E300D1124332E206281
:101680000CC08E3221F426FD5FC1206406C08C366A
:1016900011F4206802C0883641F4F60193FD85916B
:1016A00093FF81916F018111C1CF982F9F7D955438
:1016B000933028F40C5F1F4FFFE3F9830DC083368E
:1016C00031F0833771F0833509F057C021C0F8013C
:1016D000808189830E5F1F4F44244394512C540111
:1016E00014C03801F2E06F0E711CF801A080B180C7
:1016F00026FF03C0652D70E002C06FEF7FEFC501CC
:101700002C874CD12C0183012C852F77222E16C0DB
:101710003801F2E06F0E711CF801A080B18026FF45
:1017200003C0652D70E002C06FEF7FEFC5012C870D
:101730002AD12C012C852068222E830123FC19C07C
:10174000832D90E048165906A0F4B70180E290E09E
:1017500030D13A94F5CFF50127FC859127FE819190
:101760005F01B70190E025D131103A94F1E04F1AB2
:1017700051084114510479F7DEC0843611F08936DE
:1017800031F5F80127FF07C0608171818281938163
:101790000C5F1F4F08C060817181072E000C880B01
:1017A000990B0E5F1F4F2F76722E97FF09C09095F1
:1017B0008095709561957F4F8F4F9F4F2068722E57
:1017C0002AE030E0A4012DD1A82EA81843C0853707
:1017D00029F42F7EB22E2AE030E025C0F22FF97FC7
:1017E000BF2E8F36C1F018F4883579F0ADC0803740
:1017F00019F0883721F0A8C02F2F2061B22EB4FE37
:101800000DC08B2D8460B82E09C024FF0AC09F2F05
:101810009660B92E06C028E030E005C020E130E037
:1018200002C020E132E0F801B7FE07C0608171819B
:10183000828193810C5F1F4F06C06081718180E0BF
:1018400090E00E5F1F4FA401ECD0A82EA818FB2D2E
:10185000FF777F2E76FE0BC0372D3E7FA51450F408
:1018600074FE0AC072FC08C0372D3E7E05C0BA2C3B
:10187000372D03C0BA2C01C0B52C34FF0DC0FE01BA
:10188000EA0DF11D8081803311F4397E09C032FFE9
:1018900006C0B394B39404C0832F867809F0B39440
:1018A00033FD12C030FF06C05A2CB31418F4530C89
:1018B0005B18B32CB31460F4B70180E290E03C876E
:1018C00078D0B3943C85F6CFB31410F43B1801C024
:1018D000312C34FF11C0B70180E390E03C8769D020
:1018E0003C8532FF16C031FD03C088E790E002C09E
:1018F00088E590E0B7010CC0832F867851F031FF66
:1019000002C08BE201C080E237FD8DE2B70190E0BA
:1019100050D0A51430F4B70180E390E04AD05A9437
:10192000F8CFAA94F401EA0DF11D8081B70190E08F
:1019300040D0A110F6CF332009F45DCEB70180E28C
:1019400090E037D03A94F7CFF7018681978102C0B3
:101950008FEF9FEF2C960FB6F894DEBF0FBECDBF72
:10196000DF91CF911F910F91FF90EF90DF90CF907B
:10197000BF90AF909F908F907F906F905F904F90AF
:101980003F902F900895FC01059061507040011028
:10199000D8F7809590958E0F9F1F0895FC01615098
:1019A000704001900110D8F7809590958E0F9F1F81
:1019B00008950F931F93CF93DF93FB01238121FDA4
:1019C00003C08FEF9FEF28C022FF16C046815781CA
:1019D000248135814217530744F4A081B1819D01D0
:1019E0002F5F3F4F318320838C93268137812F5F78
:1019F0003F4F3783268310C0EB01092F182F008437
:101A0000F185E02D0995892BE1F68E819F81019664
:101A10009F838E83812F902FDF91CF911F910F9104
:101A20000895FA01AA27283051F1203181F1E89474
:101A30006F936E7F6E5F7F4F8F4F9F4FAF4FB1E0C1
:101A40003ED0B4E03CD0670F781F891F9A1FA11DBC
:101A5000680F791F8A1F911DA11D6A0F711D811DBD
:101A6000911DA11D20D009F468943F912AE0269F82
:101A700011243019305D3193DEF6CF010895462FE1
:101A80004770405D4193B3E00FD0C9F7F6CF462FC2
:101A90004F70405D4A3318F0495D31FD405241932B
:101AA00002D0A9F7EACFB4E0A695979587957795E8
:101AB0006795BA95C9F700976105710508959B016F
:101AC000AC010A2E06945795479537952795BA95F8
:101AD000C9F7620F731F841F951FA01D0895F89406
:021AE000FFCF36
:101AE200FFFF0000253032643A253032643A253057
:101AF200326400253032642F253032642F25303293
:101B020064005345542054494D45005345542044E4
:101B12004154450044656D6F5365635461736B00B6
:101B2200436C6F636B5365635461736B00436C6FFB
:101B3200636B5072696E745365635461736B0042D8
:101B42007574746F6E5365635461736B00426163A5
:101B52006B6C696768745365635461736B006206EA
:101B62005596241770A487CFA9051A40A5DB3D140A
:101B72004459823F346618E584F550D8C3735AA895
:101B82009CCBB17802BEBC0764B9AEF3A20AED12D7
:101B9200FDE108D0ACF4FF7E654F91EBE4797BFB6D
:101BA20043FAA1006B61F16FB552F92145373B99B8
:101BB2001D09D5A7545D1E2E5E4B977249DEC56086
:101BC200D22D10E3F8CA3398FC7D51CED7BA279EA6
:101BD200B2BB8388013132118D5B2F813C639A2322
:101BE20056AB692226C8933A4D76ADF64CFE85E88F
:101BF200C490C67C35046C4ADFEA86E69D8BBDCD77
:101C0200C780B013D3EC7FC0E746E958922CB7C91E
:101C120016530DD6746D9F205FE28CDC390CDD1FEC
:101C2200D1B68F5C95B8943E7141251B6AA6030E0E
:101C3200CC48152938421CC128D91936B375EE573C
:101C4200F09BB4AAF2D4BFA34EDA89C2AF6E2B774F
:101C5200E0477A8E2AA06830F7670F0B8AEF494473
:041C62004C450000ED
:00000001FF
